:1000000000180020C1000000D1100000991000006D
:10001000991000009910000099100000991000003C
:10002000991000009910000099100000D1100000F4
:10003000D1100000991000009D220000A5220000B0
:10004000D1100000D1100000D1100000D11000002C
:10005000D1100000D1100000D1100000D11000001C
:10006000D1100000D1100000D1100000D11000000C
:10007000D1100000D1100000D1100000D1100000FC
:10008000D1100000D1100000D1100000D1100000EC
:10009000D1100000D1100000D1100000D1100000DC
:1000A000D5190000D1100000D1100000D1100000BF
:1000B000D1100000D1100000D1100000D1100000BC
:1000C000F0B5474680B401F007F80821474A484B8D
:1000D0001A60484A484B1A60484A494B1A60494BD3
:1000E0001A780A4202D01A780A431A702A22464B1A
:1000F000464C1A700023464846491A19824203D2D8
:10010000CD5804331560F8E70022434B43498B4236
:1001100001D204C3FBE70023414A424958589046A4
:1001200098500433C02BF9D100220327FF268025E5
:100130003D4930008C4611003940C9008840930881
:100140009B0063441C680132844320002C008C40D7
:10015000210001431960202AEAD14246334B1A603C
:100160008A22334B1A70334B663A5A707C321A70BB
:100170009E3A99791142FCD0102299791142FCD112
:100180000C209A792B490240082AFAD1053A0A71C3
:100190003D324A71203A99791142FCD04022997936
:1001A0001142FCD02449254A11602021214A1170B6
:1001B00014399A790A400C2AFBD1214A214B1A6042
:1001C000214A224B1A600022214B1A60214B073230
:1001D0001A60214A214B1A6062B601F05FF800F004
:1001E00081FF02F0E9F900F04FFFFEE7300004F074
:1001F00034800440823F0000388004400100000F3A
:100200003C80044002D0074000E0074020FDFF1F73
:100210007CFEFF1F5434000000FFFF1F5C05002020
:1002200000F9FF1F0000000000E400E008ED00E01E
:100230000050064000400640000001104480044089
:10024000C0000505048004407FBB000014E000E00E
:1002500018E000E010E000E00000202020ED00E0C9
:10026000FFFFFFFFFFFFFFFFFFFFFFFFFFFFFFFF9E
:10027000FFFFFFFFFFFFFFFFFFFFFFFFFFFFFFFF8E
:10028000FFFFFFFFFFFFFFFFFFFFFFFFFFFFFFFF7E
:10029000FFFFFFFFFFFFFFFFFFFFFFFFFFFFFFFF6E
:1002A000FFFFFFFFFFFFFFFFFFFFFFFFFFFFFFFF5E
:1002B000FFFFFFFFFFFFFFFFFFFFFFFFFFFFFFFF4E
:1002C000FFFFFFFFFFFFFFFFFFFFFFFFFFFFFFFF3E
:1002D000FFFFFFFFFFFFFFFFFFFFFFFFFFFFFFFF2E
:1002E000FFFFFFFFFFFFFFFFFFFFFFFFFFFFFFFF1E
:1002F000FFFFFFFFFFFFFFFFFFFFFFFFFFFFFFFF0E
:10030000FFFFFFFFFFFFFFFFFFFFFFFFFFFFFFFFFD
:10031000FFFFFFFFFFFFFFFFFFFFFFFFFFFFFFFFED
:10032000FFFFFFFFFFFFFFFFFFFFFFFFFFFFFFFFDD
:10033000FFFFFFFFFFFFFFFFFFFFFFFFFFFFFFFFCD
:10034000FFFFFFFFFFFFFFFFFFFFFFFFFFFFFFFFBD
:10035000FFFFFFFFFFFFFFFFFFFFFFFFFFFFFFFFAD
:10036000FFFFFFFFFFFFFFFFFFFFFFFFFFFFFFFF9D
:10037000FFFFFFFFFFFFFFFFFFFFFFFFFFFFFFFF8D
:10038000FFFFFFFFFFFFFFFFFFFFFFFFFFFFFFFF7D
:10039000FFFFFFFFFFFFFFFFFFFFFFFFFFFFFFFF6D
:1003A000FFFFFFFFFFFFFFFFFFFFFFFFFFFFFFFF5D
:1003B000FFFFFFFFFFFFFFFFFFFFFFFFFFFFFFFF4D
:1003C000FFFFFFFFFFFFFFFFFFFFFFFFFFFFFFFF3D
:1003D000FFFFFFFFFFFFFFFFFFFFFFFFFFFFFFFF2D
:1003E000FFFFFFFFFFFFFFFFFFFFFFFFFFFFFFFF1D
:1003F000FFFFFFFFFFFFFFFFFFFFFFFFFFFFFFFF0D
:10040000FFFFFFFFFFFFFFFFFFFFFFFFDEF9FFFF23
:1004100010B5064C2378002B07D1054B002B02D0DA
:10042000044800E000BF0123237010BD00FFFF1F40
:100430000000000054340000084B10B5002B03D01E
:100440000749084800E000BF07480368002B00D1B7
:1004500010BD064B002BFBD09847F9E700000000C9
:1004600004FFFF1F543400007CFEFF1F000000004B
:10047000F0B583B007000E0001A900F07BFC3C182A
:10048000019BD800093000F00DFB0500002100F0B1
:1004900001FC2D180199280000F0DAFB2D18019BB2
:1004A000002B28D06946200000F064FC2418009935
:1004B000200000F0FDFC002805D00100280000F01D
:1004C000C7FB2D1810E00099200000F057FC002811
:1004D00005D00100280000F0BBFB2D1804E000212E
:1004E000280000F0B5FB2D18009B9C466444019B3E
:1004F000013B0193D3E7BE19A41B60424441E0B223
:10050000034900F0F3F8280000F0ECFA03B0F0BD66
:10051000F82E000070B584B006000D0003A900F0AD
:1005200029FC3418039B002B22D06946200000F0E0
:100530001DFC241801A9200000F01CFC241802A9AD
:10054000200000F017FC2418029A2100009802F005
:1005500068F8029A009BD018019B9A1A002102F0B9
:1005600069F8029B9C466444039B013B0393D9E7D3
:100570007519601B44426041C0B2074900F0B6F8EB
:10058000012000F08FFA0400002100F083FB201806
:1005900000F0A8FA04B070BDF82E000030B583B0AA
:1005A00004000839080041424841C0B20B4900F03C
:1005B0009DF801A9200000F0D9FB019D280002F060
:1005C0005BF8083000F06EFA0400290000F04EFBE2
:1005D000201800F087FA03B030BDC046F82E0000A6
:1005E00010B513000A000100042000F015F910BD39
:1005F00010B502000B000021052000F00DF910BD20
:100600007047C04610B51F30FFF7FAFF1F2398430D
:1006100010BDC0467047C04610B51F30FFF7FAFF47
:100620001F23984310BDC046F0B585B004000839BB
:10063000080041424841C0B2174900F057F803A9E9
:10064000200000F093FB039CE30704D4210013482F
:1006500000F088FA1EE0012000F024FA05000130C5
:10066000FFF7D0FF0E4F386000F04EFAFFF7D4FFCF
:100670000C4E306000220023009201936846A04790
:1006800000233B6033600021280000F003FB2818A2
:1006900000F028FA05B0F0BDF82E0000102F000081
:1006A00020FFFF1F1CFFFF1F70B5044D2C68201892
:1006B000FFF7B2FF2860200070BDC04620FFFF1F7B
:1006C00010B50300054A1168054A1068054A00F094
:1006D0006FFA0121044801F0C1FFC04628FFFF1F47
:1006E00024FFFF1F402F00002CFFFF1F10B5002824
:1006F00002D10800FFF7E4FF10BDC04600B589B085
:1007000000F058FC0B4B03930B4A04920B4B9B1AC3
:10071000059307A800F062FB069006AB6A4603CB80
:1007200003C20399049A059B054800F055F909B0E6
:1007300000BDC046582F000088FFFF1F89FFFF1F24
:100740000000002070B586B0050000F09DF902AAF7
:100750008021C900164800F0B9F8041E0AD101A88A
:1007600000F0F0F90200019B0299022000F054F819
:10077000013419E0039B012B03D100232B700024CB
:1007800012E0049B0A4EF0188021C900C91A00F03B
:100790002DFA0500059B049930009847431B2A0059
:1007A0000299022000F038F8200006B070BDC04663
:1007B0000000002010B500F025FC10BD00B583B08E
:1007C000114A124B1A608022D200114B1A60114854
:1007D00001F038FFC0B26B46D87100280CD100F090
:1007E0002DFCFFF78BFF6B46D81DFFF7ABFF0028F2
:1007F00002D000F029FCF6E76B46D87900F04EF8FD
:1008000000F038FC03B000BD0000002024FFFF1FF3
:1008100028FFFF1F2CFFFF1FF0B58BB001900F00CA
:1008200016001D002033190002A800F011FA040080
:1008300002AB9C4664440199200000F009FA241898
:100840003900200000F004FA2018002100F000FA1E
:10085000202102A800F09EFB2900300000F09AFB46
:100860000BB0F0BD10B582B00B4C00E00A4C0A4B47
:1008700008339C420ED201216B46D81D00F054FB78
:100880000028F4D022786B4607331B789A42EDD1CA
:100890000134ECE702B010BD602F000000B583B05A
:1008A000002808D101AA0023137001330021013070
:1008B000FFF7B2FF08E001A800F044F90200019B35
:1008C00000210120FFF7A8FF03B000BDF0B54746A7
:1008D00080B48EB0040005911700202100F024FBA5
:1008E000002802D13848FFF7EBFE0CA9200000F0E9
:1008F000D5F926180AA9300000F0D0F9361808A951
:10090000300000F0CBF9301806A900F0C7F90C9AB6
:100910000D9B002B0BD10A9D0B9E002E07D1099930
:10092000002904D1069988460799002908D0274A4A
:100930000599200000F03CF900F038FB00203FE072
:1009400020204042C11712184B410C920D9305997B
:100950000020002B03D183420DD18A420BD9059987
:100960000291009201931A4A200000F021F900F050
:100970001DFB002024E0032D01D1002E12D0012DFB
:1009800001D1002E0ED01100200000F0CDFA0A9AFD
:100990000B9B009201930F4A0599200000F008F983
:1009A00000200DE0032D03D1002E01D14146F96056
:1009B000BA607D60089B3B600C99200000F0B4FA9F
:1009C0000EB004BC9046F0BD682F0000982F0000C8
:1009D000CC2F00000830000084B0F0B583B00400D4
:1009E000019009910A920B9304211E4800F0D2FA5B
:1009F0000999200000F03AF924180A9B0093180086
:100A0000FFF7FEFD0100200000F022F924180B9BE7
:100A100000931900200000F01BF924180C9D2900F8
:100A2000200000F015F924180027AF420FD2FE0075
:100A30000D9B9C4666443168200000F017F924188D
:100A40007168200000F004F924180137EDE7019ADD
:100A5000A31A00210020FFF7DFFE03B0F0BC08BCA2
:100A600004B01847602F000010B50400054B186053
:100A7000012100F00FF924180021200000F0E8F80F
:100A8000201810BD080400200023034A1360034A05
:100A90001360034A13607047080400200404002018
:100AA0000004002070B504000A4D2868431E9841D8
:100AB000C0B20949FFF71AFE2E6830192860074BAB
:100AC0001A68002382425B41D8B20549FFF70EFE47
:100AD000300070BD08040020343000000004002005
:100AE0005030000010B50400054B1B680020A342E5
:100AF0004041C0B20349FFF7F9FD200010BDC046D8
:100B0000080400207030000010B5054C2068431E1A
:100B10009841C0B20349FFF7E9FD206810BDC04607
:100B2000000400209430000070B50500044B1868E4
:100B3000441C2900200000F08BF82818201870BDF4
:100B40000804002070B50400054D2B68581C2100D6
:100B500000F010F9236809332360286870BDC0468F
:100B6000080400200FB470B582B006AC40CC0D4D27
:100B70002868431E9841C0B20B49FFF7B7FD0194A6
:100B800028680A4B1C68241AFFF76EFF019B32008D
:100B9000210001F0A3FDFFF7C7FF02B070BC08BC45
:100BA00004B0184704040020AC300000000400200A
:100BB0000CB430B583B00C0006AB20CB0193FFF72B
:100BC00053FF019B2A00210001F088FDFFF7ACFFD5
:100BD00003B030BC08BC02B01847C04610B53F3067
:100BE000FFF70EFD3F23984310BDC04670B50400CB
:100BF0000D00134B1B68002B09D1124B1B68002BF7
:100C000007D1114B1B68002B05D0002004E0002009
:100C100002E0002000E001200C49FFF767FD200002
:100C2000FFF7DCFF064E3060021B0021200001F0C0
:100C300001FD3068034B18606419034B1C6070BDE4
:100C4000040400200804002000040020E430000018
:100C500001700B0A43700B0C8370090EC1700023E6
:100C6000037143718371C37108207047F8B50500A3
:100C70000F00080001F000FD060001002800FFF74A
:100C8000E7FF040028183200390001F0CAFC3019CF
:100C9000F8BDC046017001207047C04670B50378AA
:100CA0000B6000224A604478260E240223430B6026
:100CB0004E608478250C240423431A0034002C430E
:100CC0000B604C60C3781D0A1B0613432C430B605A
:100CD0004C6004794C604279120222434A60847964
:100CE000240422434A60C079000602434A60082077
:100CF00070BDC04670B5040002780A6043781B02DC
:100D000013430B608278120413430B60C2781206FF
:100D100013430B600079002808D16379002B05D1BB
:100D2000A379002B02D1E379002B1BD04342584119
:100D3000C0B20D4D2900FFF7D9FC607943425841FC
:100D4000C0B22900FFF7D2FCA07943425841C0B29B
:100D50002900FFF7CBFCE07943425841C0B229009B
:100D6000FFF7C4FC082070BDFC30000010B5FFF791
:100D7000C1FF10BD10B5FFF7BDFF10BDF0B583B0CA
:100D800006000191114B083B1D00114FAF421AD8CC
:100D9000EB1BDB10DC0FE4186410E4003C190D4978
:100DA00023689C466144019A300001F02BFC002826
:100DB00002DD08342700E9E7002802DA083C2500B4
:100DC000E4E7606800E0002003B0F0BD0C04002000
:100DD00018040020403200007047C04610B50400DF
:100DE0000A4B1B68DB070CD4084800F09BF900286D
:100DF00007D00748FFF7F0FF064B5860034800F0A4
:100E000095F9044B2360012010BDC0461404002056
:100E10007104000038FDFF1F10B501281CD10F4BD5
:100E2000994219D10E48FFF7D7FF0E4C60600E486B
:100E3000FFF7D2FFE0600D48FFF7CEFF60610C487E
:100E4000FFF7CAFF0B4C60600B48FFF7C5FFE0607F
:100E50000A48FFF7C1FF606110BDC046FFFF0000F8
:100E60001505000040FDFF1F290600009D0500003C
:100E7000E105000020FDFF1FF1050000A9060000AC
:100E8000F8B507000E0015000024022C0DD8E30071
:100E9000D8592A00310001F0B5FB002803D1E40045
:100EA0003C19606802E00134EFE70020F8BDC0465D
:100EB00070B504000D000F220100114801F0A2FBE3
:100EC000002809D12A0021000E48FFF7D9FF002889
:100ED00014D10D48FFF7F4FB0B2221000B4801F061
:100EE00091FB002809D12A0021000948FFF7C8FF1B
:100EF000002803D10748FFF7E3FB002070BDC04680
:100F00002431000040FDFF1F343100005431000047
:100F100020FDFF1F6031000010B502490120FFF7DE
:100F20007BFF10BDFFFF0000F0B557464E4645461B
:100F3000E0B482B08246894600239846C8451ED256
:100F4000564646444B4642469D1A104B1B68019339
:100F5000019F00243019291B00F098FF2418A54296
:100F60000BD90A4B1B680093009BDB1B084A926855
:100F70009342EFD30122064B1A73A044DEE701200F
:100F800002B01CBC90469946A246F0BD2004002049
:100F90005CFDFF1F10B504000A00034803685B688E
:100FA0002100984710BDC0465CFDFF1F10B501F041
:100FB0007BF810BD10B50F4B1B78002B0CD00E4BDF
:100FC0001B78DB070AD50D4B1B680D4A12689B1A6C
:100FD0000E2B05D8002304E0002302E0002300E0EC
:100FE0000123002BE7D0FFF7E1FF72B6FFF73AFCD1
:100FF00010BDC04604050020140500202004002078
:101000005405002070B501210D2000F0BDF800242A
:10101000022C11DC01210D2000F08EF8FA256D0064
:10102000280000F01FF900210D2000F085F82800AD
:1010300000F018F90134EBE770BDC04610B501218E
:101040000D2000F079F810BD10B50024002C0FDC45
:1010500000210D2000F070F8322000F003F901218A
:101060000D2000F069F8322000F0FCF80134EDE7C3
:1010700010BDC04610B500210D2000F05DF8FA202B
:10108000400000F0EFF810BD10B5FFF793FBFFF73D
:1010900095FB01F061F8FAE710B50C4B1B685B0398
:1010A00001D500F097FC094B1B685B0501D500F0EA
:1010B0000FF8064B1B681B0501D500F009F8034B20
:1010C0001B68DB04E9D500F003F8E6E73480044050
:1010D00010B5FFF7E1FFC0460022014B1A607047D0
:1010E000008104407047C04610B50C4B1B680028B7
:1010F00011D06A4618180A498C466244904206D3B9
:1011000001F054FA0C2303600120404204E0034A3A
:101110001060180000E0180010BDC04658FDFF1F09
:1011200000FEFFFF007843425841704701230370DF
:101130007047C0467047C04670B51A2820D8114C79
:1011400043001D18AA0015592E7DA218137A1E42BD
:1011500005D0002901D02B7112E02B7210E0430062
:1011600018188300074AD3185B68002904D019684F
:1011700003220A431A6003E01A6802218A431A60B4
:1011800070BDC0464432000070B51A2845D84200F0
:1011900012189300214AD3185B68012901D0042951
:1011A0001BD11E4D42001618B4006459267D10183C
:1011B0008200AA18127A32432275A22252001A60C3
:1011C000042905D11968253AFF3A0A431A6024E038
:1011D0001A6820218A431A601FE0104E4200151839
:1011E000AC00A5592C7D10188200B218127A9443D5
:1011F0002C75002903D1802252001A600DE00229CB
:1012000003D10422FF321A6007E0032903D18122AF
:1012100052001A6001E000221A6070BD44320000E2
:1012200072B60B4B1A680B4B18680B4B1B6862B6F7
:101230005B0102D5322A00D90130084B9B1AFA22F1
:1012400092005043064A53439B0DC0187047C04656
:1012500018E000E02004002004ED00E07FBB000067
:101260005555010070B50500FFF7DAFF0400002DA9
:1012700007D10FE0013D002D0CD0FA239B009C46C6
:101280006444FFF7CDFF001B034B9842F2D800F0F7
:1012900063FFF6E770BDC046E703000010B51F4BC3
:1012A0008022D2051A60802212061A6000201C4B90
:1012B00018601C491C4B196028231C4A13601C4AE7
:1012C00013601C4A13601C4A13601C4A13601C4ABA
:1012D000136009221B4C22601B4C20601B4C2160B8
:1012E0001B4C23601B4C23601B4C22601B4C20605A
:1012F0001B4801601B490B601B490B601B4B1A60AC
:1013000000F0D8FFFFF716FF1420FFF7ABFF00F047
:1013100093FC8C204000FFF7A5FF10BD00E100E02A
:1013200004800340FFBF0000088003400C8003409E
:10133000148003401C800340248003402C80034021
:101340003480034000800340049003400890034031
:101350000C900340149003400090034004A003400D
:1013600008A003400CA0034014A0034000A00340C9
:101370000F22014B1A707047C020074030B50E4B4A
:101380001C7802232343DBB2DA000C4DAA1850600C
:101390000B4A1278002A01D0C82000E088200904F6
:1013A0000143DB000548195001235A4004490A70E3
:1013B0006340014A137030BD8804002000F8FF1F0D
:1013C00005050020F8B5B94B1B88B94A93421AD8D5
:1013D000013A934200D31EE181225200934200D190
:1013E000E9E006D8802B00D1C6E0822B00D1C9E00D
:1013F0003AE1B04A934200D1F5E0FF32FF32934226
:1014000000D134E130E1AC4A934200D18EE108D8FA
:1014100088221201934200D1A8E08032934209D081
:1014200022E1A64A934200D10FE1A54A934200D19E
:101430001DE119E19D4B9A78A24B1A7004240BE030
:10144000E300A14A9B581B0605D5E300D318586852
:10145000083800F08FFC0134132CF1DD002536E054
:10146000AB009A4A985803E0446800F083FC2000DF
:101470000028F9D1AB00002294495A5094495A509F
:10148000944A985803E0446800F074FC2000002857
:10149000F9D1AB0000228F495A508F495A506B0046
:1014A0008E495A528E4B5B5D032B0CD002D8022B17
:1014B00005D00BE0042B02D0052B04D006E000225F
:1014C000874B5A5502E00122854B5A550135032DB1
:1014D000C6DD0022834B1A700124834B834D40E00C
:1014E0005E1C1B782B7004351B072DD500F022FCE9
:1014F000002807D00830744B6201991848607C4975
:10150000D15007E0630100216F4A9950754A137862
:101510000133137000F00EFC00280AD0A200012352
:1015200013430830684ADB00D1184860714999506C
:101530000AE0A20001231343DB000021624A995014
:10154000684A137801331370A70002223A435E49B8
:10155000D2000020505003233B43DB00585001349D
:101560003300042CBCDD0023002488E0554B1B789D
:10157000614C2370012382E05F4C00232370637071
:1015800002337CE0494B9B887F221340042B02DD11
:10159000FFF7EEFECAE0584A0021117051709B001F
:1015A000564A944663441B789B0763D5524C0123EB
:1015B0002370013363E03D4B9B887F221340042B53
:1015C00003DC3A4A5288002A02D0FFF7D1FEADE090
:1015D0009B004A4A944663441A7802218A431A704F
:1015E000002300244BE0314B9B887F221340042BC7
:1015F00003DC2E4A5288002A02D0FFF7B9FE95E09C
:101600009B003E4A94466344197802220A431A70AA
:101610000023002433E03A4B5C68002C12D0234AAC
:10162000528819888A420BD1204988885988884273
:1016300006D1120A032A01D1237820E01B891EE07B
:101640000C33E9E7FFF794FE70E0184B9B88002B02
:1016500013D12C4B1A682C4B1A60144B9A782B4BD5
:101660001A70002300240AE0FFF782FE5EE00023E8
:10167000002404E00223204C01E0002300240B4A54
:10168000D588AB4200D81D00402D01D82E0000E0C7
:10169000402631002000FFF771FEA419AD1B01D1D7
:1016A0003F2E43D9402D33D82E0032E0EC040020E9
:1016B000810600000203000021200000212200001A
:1016C000212300000405002000F8FF1F78040020FB
:1016D00028040020CC040020DC0400204405002065
:1016E000F8040020F4040020B0330000C4200740B8
:1016F00088004000C8004000FC040020C0200740D3
:10170000B4330000200400205405002014050020FC
:10171000402631002000FFF731FEA419AD1B01D196
:101720003F2E03D9024B1C60024B1D80F8BDC04602
:1017300024040020F604002070B58008C0003A4C54
:10174000241823689B080F2213406268092B41D09C
:1017500003D8013B012B17D962E00D2B60D1334B2D
:101760001168196052685A60314B23600023314A76
:1017700013602D4A1361936101242F4B1C70FFF7F6
:1017800021FE2E4B1C704BE0284B19882C4B9942A4
:101790001DD1264B9B88002B01D0002500E0294D50
:1017A000002D06D10FE010780870013301310132AD
:1017B00001E029000023062BF5DD2B68862B02D1E2
:1017C0000F22214B1A7000210020FFF7D7FD184B84
:1017D000236025E0174B1C68002C15D01B4B1D887F
:1017E000402D00D9402529002000FFF7C7FD6419CE
:1017F000164A13885B1B9BB21380002B02D1402D2D
:1018000000D000240B4B1C60084B1A88A023DB007F
:101810009A4205D1054B00225A709A780C4B1A70E7
:101820000122064B1A7070BD00F8FF1FEC04002067
:10183000C800400024040020050500209420074033
:10184000212000004C05002089040020F60400201F
:101850009820074010B50138032811D872B68300CC
:10186000084A9B58002B08D081005C688C501C886B
:1018700005494000425A121B425262B6180000E06D
:10188000002010BD78040020440500200138032802
:101890000BD872B68000064BC358002001E001301F
:1018A0005B68002BFBD162B600E000207047C046A9
:1018B000CC04002070B572B61C4A01232CE0541CE5
:1018C0001278120726D59D005A0119495258002A4C
:1018D0000CD108300B00EA00891848601549D15036
:1018E000154A1378013B137062B61DE001212A00EE
:1018F0000A43D5000E49695800290BD108300C4B1A
:10190000591948600D49E9500B4A1378013B13708F
:1019100062B609E001332200042BD0D962B600225E
:10192000054B1A7000F026FA70BDC046B0330000B7
:1019300000F8FF1F88004000F4040020C8004000A9
:1019400010B5820002231343DB001D4AD31801386F
:10195000032834D872B61B4A125C012A06D0002A2A
:101960001BD0022A1BD0032A03D005E0083302242F
:1019700016E00833042413E08300134A9B58002B1D
:1019800002D18300995003E08300104A9B585960AC
:1019900080000E4BC15062B611E0032400E0052424
:1019A000084A14540A0008325A601A0701D5C820A0
:1019B00000E088200A88120402431A6062B610BD53
:1019C00000F8FF1FF8040020CC040020DC040020F5
:1019D00000BEC04670B5814B1C78E4B2630720D5C9
:1019E0007F4B1B78002B19D07E4B1B78DBB2002B72
:1019F00007D0013BDBB27B4A1370002B01D1FFF70C
:101A0000E7FF794B1B78DBB2002B07D0013BDBB241
:101A1000754A1370002B01D100F078FB04226F4B44
:101A20001A70230700D49CE0704B1878C0B20309E9
:101A300002D1FFF781FE90E08508ED006C4A551950
:101A40006A6811000839013BDCB2030749D5080078
:101A500000F090F9A300674A9A58002A29D06549F6
:101A600050685850130008336B60634B1B5D012BAB
:101A70000AD0002B04D0022B0AD0032B0CD00EE08E
:101A800003215D4B19550AE002215B4B195506E015
:101A90000521594B195502E00421574B19552B07C5
:101AA00001D5C82100E0882113881B040B432B605B
:101AB00053E0514B1B5D022B03D04ED3032B04D0BC
:101AC00007E000224C4B1A5547E001224A4B1A55B9
:101AD00043E02B0701D5032200E00222464B1A55B2
:101AE0003BE02B681B0C100008380380002B2ED025
:101AF00000201300083B58805860A3003F481B5843
:101B0000002B02D1A300195003E0A3003C481B584E
:101B10005960A0003A4BC150083A1188394A640014
:101B2000A35ACB18A35200F005F9002808D00830BA
:101B300068602B0701D5344B00E0344B2B600CE080
:101B400000232B60324A13780133137005E02B0712
:101B500001D52D4B00E02D4B2B6008221F4B1A7036
:101B600039E7E30721D52B4902230B7000222A4BCA
:101B70001A701F4B25481860284C5C6098602848F4
:101B8000D8601A619A610D20264B1870FF232648F1
:101B900003701248037025480270254A13709F2273
:101BA000244B1A7001230B7016E063B2002B05DA88
:101BB0000D221C4B1A707332084B1A70A30706D5FE
:101BC000194A1378DBB213700222044B1A70E30631
:101BD00002D51022014B1A7070BDC046802007400C
:101BE00004050020890400200605002090200740FD
:101BF00000F8FF1FCC040020F80400207804002027
:101C00002804002044050020C8004000880040004F
:101C1000F4040020942007408804002038040020A9
:101C20008C040020C02007408820074098200740EF
:101C30008C2007408420074010B500F09DFB002257
:101C400006E01C48D30000211950C3185960013226
:101C5000132AF6DD184A13688021C9020B4313606A
:101C6000144B1A0AD2B215490A701A0CD2B214498E
:101C70000A701B0E134A1370FF23134A1370134A82
:101C80001370134A1370012212490A70002012497E
:101C9000087012490A7012490A689A438F3B13432D
:101CA0000B60802252040F4B1A6010220E4B1A70E8
:101CB00010BDC04600F8FF1F348004409C20074040
:101CC000B0200740B420074080200740882007400C
:101CD000102007409420074000210740842007403F
:101CE00018E400E000E100E00821074010B500F032
:101CF00013F910BD10B500F093F810BD10B500F049
:101D000061F810BD10B500F0B1F810BD10B500F0CD
:101D1000CBF910BD10B500F09BF910BD10B508004F
:101D2000110000F015F910BD10B5080000F084F99D
:101D300010BDC04610B572B60C4B1C68200000F0F8
:101D400017FC0B2802D962B600200EE080231B0688
:101D5000C3409C43054B1C6062B6C3001818C30007
:101D60000348C01800230360436010BD6CFDFF1FD3
:101D7000C0F9FF1F10B504000E48201A482100F0DA
:101D80006BFB0B2814D80C4B1B78002B07D00B4B8C
:101D90001B78002B03D02000FFF78CFD08E0802388
:101DA0001B06C34072B6064A11680B43136062B645
:101DB00010BDC046C0F9FF1FF40400200405002038
:101DC0006CFDFF1F10B5144B1B68002B0AD1134B81
:101DD0001B78002B19D00320FFF73CFD0E4B186039
:101DE000002815D00C4B186843885A1CC3181C7A5D
:101DF00003889A4206D3FFF7BDFF0022064B1A6004
:101E0000200007E04280200004E00120404201E081
:101E10000120404210BDC0461005002004050020EE
:101E200010B5104B1B68002B0AD10F4B1B78002BF1
:101E30000ED00320FFF70EFD0A4B186000280AD0D1
:101E4000084B1B68002B09D05A889B18187A07E0AA
:101E50000120404204E00120404201E001204042D4
:101E600010BDC0461005002004050020054B9888D1
:101E7000054B1B68002B03D01A885B88D31AC01847
:101E80007047C0464405002010050020F0B54746C5
:101E900080B407000E000023984633E01C4B1B78EB
:101EA000002B31D01B4B1B68002B0CD10320FFF7FC
:101EB000D1FC184B1860002826D00388002B02D1D3
:101EC000FFF758FFF2E7134B1D682C886988641AE6
:101ED000A64200D234002B000833591822003800E3
:101EE00000F09FFB3F19A044361B6B881C19A4B25D
:101EF0006C802B889C4205D32800FFF73BFF002213
:101F0000044B1A60002EC9D1404604BC9046F0BD77
:101F1000040500201005002010B50B4B1B78002B8A
:101F200010D00A4B1868002804D0FFF723FF0022C6
:101F3000064B1A600320FFF78DFC002802D0FFF744
:101F400019FFF7E710BDC04604050020100500206A
:101F5000F8B505000C000122314B1A700E0058E054
:101F6000304B1B68002B2CD100272F4B1B78002BEC
:101F700005D100222A4B1A70012040424FE0042074
:101F8000FFF784FC07280BD80122254B1A70FFF7B6
:101F9000D1FE244B1860002813D10022204B1A7068
:101FA0000137224B9F4203D8214B1B78002B05D0D1
:101FB00001221F4B1A700120404230E000F0CCF8A3
:101FC000D3E700221A4B1A70164B19684888402331
:101FD0001B1A9E4200D233000A0008321218C018A1
:101FE0004880F61A04E02B781370030001320135A3
:101FF000581E002BF7D14B883F2B07D940230B806D
:102000000420FFF79DFC0022064B1A600522094BB5
:102010001A70002EA4D10022014B1A702000F8BDC6
:1020200007050020080500200405002008750000B1
:102030000C0500200605002000B583B06B46D87162
:10204000073301211800FFF783FF03B000BDC0462E
:1020500010B50122114B1A70114B1B68002B13D1C4
:10206000104B1B78002B0AD00420FFF70FFC072829
:1020700005D8FFF75FFE0A4B1860002804D1002244
:10208000064B1A70002007E0054B1B685888402358
:10209000181A0022014B1A7010BDC0460705002017
:1020A000080500200405002010B5144B1B78002BF8
:1020B00023D00122124B1A70124B196800290AD042
:1020C0000024114B1C704B880B800420FFF738FC58
:1020D0000C4B1C600EE0FFF72DFE002807D00022FD
:1020E000094B1A7001000420FFF72AFC02E00122CC
:1020F000054B1A700022024B1A7010BD0405002017
:1021000007050020080500200605002010B50F4B2C
:102110001B78002B18D10E4B1968002908D04B886A
:102120000B800420FFF70CFC0022094B1A600BE027
:10213000FFF700FE002804D001000420FFF700FC98
:1021400002E00122034B1A7010BDC04607050020B3
:10215000080500200605002070B5364B1B78002BC3
:1021600067D0354A1278002A63D10121324A1170B2
:10217000DB070ED5FFF77AFE002801D000F0FAF851
:102180002E4B1B78002B04D02A4A137801218B4355
:102190001370284B1B789B0712D50024284B1B7803
:1021A000A3420DD9A300274A9D582B681B6928001C
:1021B0009847002801D02B6998470134E4B2EDE735
:1021C00000221D4B1A701B4B1B785B0731D51E4B31
:1021D0001B68002B2DD0EFF30583002B29D1EFF3E3
:1021E000108272B6184B1868002803D1002A20D13B
:1021F00062B61EE0154B1B78002B03D0002A18D1C5
:1022000062B616E00121114B197043690E490B604B
:10221000002B02D00021996102E000210C4B1960D3
:10222000002A00D162B60024447783689847074BA0
:102230001C7070BD70FDFF1F1505002073FDFF1F92
:10224000380500202C05002024050020280500204A
:102250002005002010B5EFF3108272B60D4B186800
:10226000002812D043690B490B60002B02D00021DB
:10227000996102E00021084B1960002A00D162B682
:102280000023437783689847E5E7002A00D162B6C8
:1022900010BDC046180500201C05002010B5FFF732
:1022A000D9FF10BD024A1368013313607047C0465E
:1022B00020040020274B1B78082B06D10022264B38
:1022C0001A601332254B1A6017E00A2B06D1382208
:1022D000214B1A60253A214B1A600EE00C2B06D1D7
:1022E00034221D4B1A60223A1C4B1A6005E03C2236
:1022F000194B1A602A3A194B1A60194B1B78002B9C
:1023000003D00022174B1A6002E00122154B1A601D
:10231000154B1B78012B03D88022144B1A6014E054
:10232000042B03D88422114B1A600EE0082B03D82B
:1023300085220E4B1A6008E0102B03D886220B4B27
:102340001A6002E08722094B1A600122084B1A70BA
:102350007047C04671FDFF1F08B003400CB003403A
:102360003A05002020B0034072FDFF1F24B0034057
:10237000390500207047C04600B585B072B6184BCD
:1023800070221A704121174A11703239164A1170A1
:1023900080221A70124B1B785BB2002BFADA134BB7
:1023A000186862B6124B984203D88300181843008D
:1023B00018000A2201A900F01FF8002308E001AA72
:1023C000D15C002906D05A000A4882185180013396
:1023D000092BF4D901335B00064A137005B000BD28
:1023E00000000240070002400600024008000240D0
:1023F0007F96980000FEFF1FF0B583B005000E0029
:10240000170000243900280000F0ACF801943319BB
:10241000092902D83031C9B201E03731C9B2197087
:102420003900280000F018F8051E01D00134E9E752
:10243000019F0137F71900233B7007E0F118087876
:10244000321915780D7010700133013C9C42F5DC97
:10245000300003B0F0BDC046002243088B4274D365
:1024600003098B425FD3030A8B4244D3030B8B4295
:1024700028D3030C8B420DD3FF22090212BA030C9E
:102480008B4202D31212090265D0030B8B4219D37F
:1024900000E0090AC30B8B4201D3CB03C01A52419F
:1024A000830B8B4201D38B03C01A5241430B8B42E7
:1024B00001D34B03C01A5241030B8B4201D30B03D0
:1024C000C01A5241C30A8B4201D3CB02C01A5241F7
:1024D000830A8B4201D38B02C01A5241430A8B42BA
:1024E00001D34B02C01A5241030A8B4201D30B02A3
:1024F000C01A5241CDD2C3098B4201D3CB01C01ABD
:10250000524183098B4201D38B01C01A52414309C6
:102510008B4201D34B01C01A524103098B4201D3B4
:102520000B01C01A5241C3088B4201D3CB00C01A21
:10253000524183088B4201D38B00C01A5241430899
:102540008B4201D34B00C01A5241411A00D20146BE
:10255000524110467047FFE701B5002000F006F831
:1025600002BDC0460029F7D076E770477047C046E5
:102570001C2101231B04984201D3000C10391B0AB3
:10258000984201D3000A08391B09984201D3000977
:10259000043902A2105C40187047C04604030202CE
:1025A000010101010000000000000000014B18685B
:1025B0007047C04678FEFF1F0E4B70B500251E0009
:1025C0000D4CE41AA410A54204D0AB00F358984770
:1025D0000135F8E700F032FF084B00251E00084CDB
:1025E000E41AA410A54204D0AB00F3589847013573
:1025F000F8E770BD4834000048340000483400005B
:102600005034000030B50024A24208D0035D651CA0
:102610000C5DA34201D0181B02E02C00F4E700205F
:1026200030BD002310B59A4203D0CC5CC4540133B2
:10263000F9E710BD03008218934202D019700133EC
:10264000FAE77047F0C041464A4653465C466D463D
:1026500076467EC02838F0C80020704710307CC80D
:1026600090469946A246AB46B54608C82838F0C8F9
:10267000081C00D1012018470023C25C0133002A46
:10268000FBD1581E704730B514009BB005001A00EE
:10269000002C04DA8B230360012040421CE08223DB
:1026A00068469B0083810023009104919C4200D0E6
:1026B000631E02930593012369465B42CB81280088
:1026C0001E9B00F0FFF8431C01DA8B232B60002CCB
:1026D00002D00023009A13701BB030BD07B50093E1
:1026E00013000A00010002480068FFF7CCFF0EBD8E
:1026F00078FEFF1F032370B5CD1C9D4308350600EF
:102700000C2D01D20C2501E0002D01DBA94202D9DC
:102710000C23336048E0300000F094FB234B1C682E
:102720001A002100002913D00B685B1B0DD40B2B62
:1027300002D90B60CC181EE08C4202D16368136092
:102740001AE04B6863600C0016E00C004968E9E78A
:10275000174C2368002B03D1300000F041FB2060B0
:102760002900300000F03CFB431C18D00323C41C9C
:102770009C43A0420DD12560300000F064FB200096
:1027800007220B30231D9043C31A0ED05A42E25049
:102790000BE0211A300000F023FB431CEBD10C238B
:1027A0003000336000F04FFB002070BD400500207A
:1027B0003C050020F8B506000C001500002904D1E6
:1027C0001100FFF797FF040018E0002A03D100F082
:1027D0003BFB2C0012E000F083FB85420ED9290060
:1027E0003000FFF787FF071E07D021002A00FFF700
:1027F00018FF2100300000F027FB3C002000F8BD4E
:10280000F0B58E6885B007000C00039201939E42DC
:1028100043D890238A89DB001A423ED003250969F8
:10282000236801985B1A029363695D43EB0F5D199E
:10283000029B6D1001331B18AB4200D91D005305DC
:1028400010D529003800FFF755FF061E14D0029A54
:102850002169FFF7E6FEA289194B1340802213433A
:10286000A38112E02A003800FFF7A4FF061E0CD156
:102870002169380000F0E8FA0C23402201203B6077
:10288000A38940421343A38117E0029B2661F618F7
:1028900026606561019EED1AA560019BB34200D2DE
:1028A0001E0032000399206800F0B7FA0020A368E8
:1028B0009B1BA36023689E19266005B0F0BDC0462F
:1028C0007FFBFFFFF0B59FB0029005938B890F004F
:1028D00016001B0610D50B69002B0DD14021FFF708
:1028E00009FF38603861002804D10C23029A0138AE
:1028F0001360D8E040237B61002306AD6B61203379
:102900006B761033AB7634002378002B03D1A31BF6
:10291000049312D003E0252BF9D00134F4E7A31B74
:10292000320039000298FFF76BFF431C00D1B4E07E
:102930006A69049B944663446B612378002B00D141
:10294000ABE00122002352426A6002A954325218BD
:1029500001342B60EB60AB601370AB65534E217894
:102960000522300000F04EFA002807D00123801B1A
:1029700083402A68013413432B60EFE72B68DA06A3
:1029800004D55322202102A8121811701A0704D569
:1029900053222B2102A81218117022782A2A03D060
:1029A000099B00200A210EE0059A111D126805916D
:1029B000002A01DB099204E05242EA60022213433A
:1029C0002B6001340BE02278303A092A04D84B43BB
:1029D00001349B180120F6E7002800D009932378E2
:1029E0002E2B1ED163782A2B0AD1059B02341A1D87
:1029F0001B680592002B01DA01235B42079310E06C
:102A000000230A201A0001346B602178303909292B
:102A100004D84243013452180123F6E7002B00D0BA
:102A20000792234E21780322300000F0EBF90028B2
:102A300006D04023801B83402A68013413432B6057
:102A4000217806221B48661C297600F0DBF9002855
:102A500012D0194B002B06D10722059B0733934355
:102A60000833059314E005AB00933A00134B29009B
:102A7000029800E000BF07E005AB00933A000F4B5F
:102A80002900029800F08AF80390039B013304D0D8
:102A90006B69039A9B186B6135E7BB890B985B06E2
:102AA00001D5012040421FB0F0BDC04608340000EF
:102AB0000E34000012340000000000000128000065
:102AC000F7B5170001938A680B6900900C009342D8
:102AD00000DA130022003B6043321278002A01D052
:102AE00001333B6023689B0602D53B6802333B60A1
:102AF000062523681D401ED0230043331B785A1E31
:102B00009341226892061CD53020E11843310870A9
:102B100021005A1C45310978A21843320233117042
:102B20000FE022000123193201990098089EB04756
:102B3000431C0ED00135E3683A689B1A9D42F0DBD6
:102B4000DAE72200019943320098089DA847431C08
:102B500002D10120404220E006232068E1683A6863
:102B600003400025042B03D18D1AEB43DB171D40D6
:102B7000A3682269934201DD9B1AED180027BD422C
:102B80000AD0220001231A3201990098089EB0470A
:102B9000431CDED00137F2E70020FEBDF0B58BB05C
:102BA00006920A0043320793059004920A7E0C00B5
:102BB000109B6E2A00D1ABE011D8632A22D009D82D
:102BC000002A00D1B5E0582A00D0C5E045310A708E
:102BD000814A4FE0642A1DD0692A1BD0BCE0732AC9
:102BE00000D1AAE009D86F2A29D0702A00D0B3E01A
:102BF000202209680A43226037E0752A1FD0782A0C
:102C000033D0A9E00E001A684236111D196013680E
:102C10003370A4E021681A68080606D4490604D572
:102C2000111D19600023D55E02E0111D19601568A1
:102C3000002D3BDA2D23049A6D42137036E0216893
:102C40001A68080606D4490604D51568111D1960CE
:102C5000ADB202E0111D196015685F4B227E03932F
:102C600008276F2A1DD00A271BE022007821453251
:102C700011705A4A19680392081D226818600D687D
:102C8000100602D4500600D5ADB2D30702D52023DA
:102C90001A4322601027002D03D1202322689A4373
:102CA00022602300002243331A7002E00A274A4BB5
:102CB00003936368A360002B09DB0422216891431E
:102CC0002160002D05D1049E002B11D07BE0002D4A
:102CD00079D0049E28003900FFF744FC039B013E95
:102CE0005B5C280033703900FFF7B6FB051EF1D19D
:102CF000082F09D12368DB0706D563682269934250
:102D000002DC3023013E3370049B9B1B23612BE0CC
:102D100009681A68080607D4490605D5111D196007
:102D20001368A28A1A8004E0111D19601368626991
:102D30001A600023049E236116E01A68111D1960B1
:102D4000166800216268300000F05CF8002801D0AD
:102D5000801B6060636803E0260042363270012306
:102D600023610023049A1370079B09AA0093210092
:102D7000069B0598FFF7A4FE431C02D101204042A8
:102D800027E02369320006990598079DA847431C50
:102D9000F4D0236800259B070FD4099BE068984274
:102DA00017DA180015E02200012319320699059858
:102DB000079EB047431CE1D00135E368099A9B1A8E
:102DC0009D42F0DBE9E72600039B42361B78337017
:102DD0008EE70BB0F0BDC046193400002A34000065
:102DE000002370B5064C050008002360FEF77CF94F
:102DF000431C03D12368002B00D02B6070BDC0465C
:102E000058050020C9B28218904204D003788B4242
:102E100002D00130F8E70020704710B5884202D98F
:102E20008B18984201D3002305E09B1A013A08D37E
:102E3000995C8154FAE7934203D0CC5CC4540133CB
:102E4000F9E710BD7047704770B50500002944D000
:102E50000C1F2368002B00DAE4182800FFF7F2FFAC
:102E60001E4A13681100002B02D16360146031E028
:102E7000A3420DD92268A018834203D118685B6869
:102E80008218226063600C6024E0A24203D8130021
:102E90005A68002AF9D11E689819A0420BD12168FE
:102EA000711858181960824214D11068526841187C
:102EB00019605A600EE0A04202D90C232B6009E091
:102EC00021686018824203D110685268411821605D
:102ED00062605C602800FFF7B6FF70BD400500200F
:102EE0000B1F1A68101F002A04DA891804390B68AE
:102EF000D01804387047FFFF496E76616C69642012
:102F0000696E707574206C656E67746800000000EF
:102F1000417474656D7074656420746F2063616CB6
:102F20006C206E6F6E2D5468756D622066756E63D1
:102F300074696F6E20402030782530386C7800FF3F
:102F4000417373657274696F6E206661696C656444
:102F50003A20257300FFFFFF302E302E3500FFFF93
:102F6000012357BDBD5723014572726F72207265F0
:102F700063656976696E67206D6573736167652047
:102F80006865616465722E205368757474696E6734
:102F900020646F776E2E00004D6573736167652046
:102FA00068656164657220696E76616C69643A2057
:102FB000616C6C2076616C756573206D757374201F
:102FC00062652033322D6269740000004D657373B1
:102FD000616765207061796C6F61642028256C756C
:102FE0002062797465732920657863656564732050
:102FF0006275666665722073697A652028256C752E
:103000002062797465732900526563656976656429
:1030100020756E6578706563746564206D65737383
:10302000616765206F702D636F64653A20256C754C
:1030300000FFFFFF526573706F6E736520627566E7
:10304000666572206E6F74207365743F0000000027
:10305000526573706F6E7365206275666665722067
:103060006F75742D6F662D6D656D6F727900000040
:103070004D697373656420746F2061637175697243
:103080006520726573706F6E7365206D656D6F720C
:10309000793F0000526573706F6E7365204C696DE7
:1030A0006974206E6F74207365743F0053657420DB
:1030B000746F20656E64206F6620696E7075742071
:1030C000627566666572206669727374000000003E
:1030D000303132333435363738394142434445464E
:1030E00000000000526573706F6E7365206E6F7420
:1030F00020636C65617265643F00FFFF4F7574204B
:103100006F6620626F756E64733A206578706563D0
:103110007465642033322D6269742076616C756544
:1031200000FFFFFF5F5F657A5F636C616E675F72D0
:1031300070635F004275696C74696E205250432061
:10314000656E64706F696E74206E6F7420666F7543
:103150006E6400005F5F657A5F636C616E675F003D
:103160004275696C74696E2072756E74696D652044
:1031700066756E6374696F6E206E6F7420666F750E
:103180006E6400005F5F657A5F636C616E675F729B
:1031900070635F6C6F6F6B75700000005F5F657AC6
:1031A0005F636C616E675F7265706F72745F76618A
:1031B0006C7565005F5F657A5F636C616E675F72F7
:1031C00065706F72745F737472696E6700000000DF
:1031D0005F5F657A5F636C616E675F696E6C696E75
:1031E000655F686561705F61637175697265000034
:1031F0005F5F657A5F636C616E675F7270635F6368
:103200006F6D6D69740000005F5F657A5F636C616C
:103210006E675F7270635F657865637574650000E3
:103220005F5F657A5F636C616E675F7270635F6D2D
:10323000656D5F726561645F63737472696E670068
:1032400000FFFFFF420000F840A004400100000022
:10325000420000F844A0044002000000C00000F852
:1032600000C0044001000000000000F80490044089
:1032700002000000000000F8089004400400000074
:10328000C00000F81CC0044080000000C00000F82E
:1032900010C0044010000000C00000F808C0044046
:1032A00004000000C00000F80CC00440080000004A
:1032B000800000F80CB0044008000000800000F816
:1032C00010B0044010000000800000F818B0044066
:1032D00040000000800000F81CB0044080000000A6
:1032E000800000F814B0044020000000C00000F886
:1032F00004C0044002000000800000F800B0044058
:1033000001000000400000F800A00440010000009F
:10331000400000F804A0044002000000400000F853
:103320000CA0044008000000400000F808A0044081
:1033300004000000C00000F814C004402000000099
:10334000C00000F818C0044040000000800000F8F1
:1033500004B0044002000000800000F808B00440FF
:1033600004000000020100F850D0044010000000EA
:10337000020100F854D0044020000000030100F8CE
:1033800078D0044040000000000000000000000071
:10339000291D00001D1D0000151D00000D1D000051
:1033A000051D0000FD1C0000F51C0000ED1C0000C8
:1033B000001519150001000074FDFF1F1200000028
:1033C00000020000A0FDFF1F4300000000030000FA
:1033D000FCFDFF1F000000000103090488FDFF1F22
:1033E0000000000002030904E4FDFF1F00000000CC
:1033F0000303090400FEFF1F00000000000000009E
:103400000000000000000000232D302B2000686C1D
:103410004C006566674546470030313233343536F7
:103420003738394142434445460030313233343530
:103430003637383961626364656600FFF8B5C046A7
:10344000F8BC08BC9E46704739040000190F000004
:04345000F8B5C046C5
:103454009C31000000000000B431000000000000B6
:10346400D0310000000000008431000000000000A2
:10347400F0310000000000000832000000000000ED
:1034840020320000000000005C05002090330000A2
:1034940000000000E803000000000000FFFFFFFF41
:1034A400010A04011201100102000040C016830445
:1034B4007302010203010000180354006500650053
:1034C4006E00730079006400750069006E006F007F
:1034D40009024300020100C0320904000001020293
:1034E4000100052400100105240101010424020641
:1034F40005240600010705820310004009040100A9
:10350400020A0000000705030240000007058402C8
:1035140040000000160355005300420020005300F1
:1035240065007200690061006C0000000403090476
:103534000C03000000000000000000000000000078
:103544000000000000000000000000000000000077
:103554000000000000000000000000000000000067
:103564000000000000000000000000000000000057
:103574000000000000000000000000000000000047
:103584000000000000000000000000000000000037
:103594000000000000000000000000000000000027
:0C35A400000000000000000018FEFF1FE7
:00000001FF
